{
  "contractName": "MyToken",
  "abi": [
    {
      "inputs": [],
      "stateMutability": "nonpayable",
      "type": "constructor"
    },
    {
      "anonymous": false,
      "inputs": [
        {
          "indexed": true,
          "internalType": "address",
          "name": "owner",
          "type": "address"
        },
        {
          "indexed": true,
          "internalType": "address",
          "name": "approved",
          "type": "address"
        },
        {
          "indexed": true,
          "internalType": "uint256",
          "name": "tokenId",
          "type": "uint256"
        }
      ],
      "name": "Approval",
      "type": "event"
    },
    {
      "anonymous": false,
      "inputs": [
        {
          "indexed": true,
          "internalType": "address",
          "name": "owner",
          "type": "address"
        },
        {
          "indexed": true,
          "internalType": "address",
          "name": "operator",
          "type": "address"
        },
        {
          "indexed": false,
          "internalType": "bool",
          "name": "approved",
          "type": "bool"
        }
      ],
      "name": "ApprovalForAll",
      "type": "event"
    },
    {
      "anonymous": false,
      "inputs": [
        {
          "indexed": true,
          "internalType": "address",
          "name": "previousOwner",
          "type": "address"
        },
        {
          "indexed": true,
          "internalType": "address",
          "name": "newOwner",
          "type": "address"
        }
      ],
      "name": "OwnershipTransferred",
      "type": "event"
    },
    {
      "anonymous": false,
      "inputs": [
        {
          "indexed": true,
          "internalType": "address",
          "name": "from",
          "type": "address"
        },
        {
          "indexed": true,
          "internalType": "address",
          "name": "to",
          "type": "address"
        },
        {
          "indexed": true,
          "internalType": "uint256",
          "name": "tokenId",
          "type": "uint256"
        }
      ],
      "name": "Transfer",
      "type": "event"
    },
    {
      "inputs": [
        {
          "internalType": "address",
          "name": "to",
          "type": "address"
        },
        {
          "internalType": "uint256",
          "name": "tokenId",
          "type": "uint256"
        }
      ],
      "name": "approve",
      "outputs": [],
      "stateMutability": "nonpayable",
      "type": "function"
    },
    {
      "inputs": [
        {
          "internalType": "address",
          "name": "owner",
          "type": "address"
        }
      ],
      "name": "balanceOf",
      "outputs": [
        {
          "internalType": "uint256",
          "name": "",
          "type": "uint256"
        }
      ],
      "stateMutability": "view",
      "type": "function"
    },
    {
      "inputs": [
        {
          "internalType": "uint256",
          "name": "tokenId",
          "type": "uint256"
        }
      ],
      "name": "getApproved",
      "outputs": [
        {
          "internalType": "address",
          "name": "",
          "type": "address"
        }
      ],
      "stateMutability": "view",
      "type": "function"
    },
    {
      "inputs": [
        {
          "internalType": "address",
          "name": "owner",
          "type": "address"
        },
        {
          "internalType": "address",
          "name": "operator",
          "type": "address"
        }
      ],
      "name": "isApprovedForAll",
      "outputs": [
        {
          "internalType": "bool",
          "name": "",
          "type": "bool"
        }
      ],
      "stateMutability": "view",
      "type": "function"
    },
    {
      "inputs": [],
      "name": "maxSupply",
      "outputs": [
        {
          "internalType": "uint256",
          "name": "",
          "type": "uint256"
        }
      ],
      "stateMutability": "view",
      "type": "function"
    },
    {
      "inputs": [],
      "name": "mintRate",
      "outputs": [
        {
          "internalType": "uint256",
          "name": "",
          "type": "uint256"
        }
      ],
      "stateMutability": "view",
      "type": "function"
    },
    {
      "inputs": [],
      "name": "name",
      "outputs": [
        {
          "internalType": "string",
          "name": "",
          "type": "string"
        }
      ],
      "stateMutability": "view",
      "type": "function"
    },
    {
      "inputs": [],
      "name": "owner",
      "outputs": [
        {
          "internalType": "address",
          "name": "",
          "type": "address"
        }
      ],
      "stateMutability": "view",
      "type": "function"
    },
    {
      "inputs": [
        {
          "internalType": "uint256",
          "name": "tokenId",
          "type": "uint256"
        }
      ],
      "name": "ownerOf",
      "outputs": [
        {
          "internalType": "address",
          "name": "",
          "type": "address"
        }
      ],
      "stateMutability": "view",
      "type": "function"
    },
    {
      "inputs": [],
      "name": "renounceOwnership",
      "outputs": [],
      "stateMutability": "nonpayable",
      "type": "function"
    },
    {
      "inputs": [
        {
          "internalType": "address",
          "name": "from",
          "type": "address"
        },
        {
          "internalType": "address",
          "name": "to",
          "type": "address"
        },
        {
          "internalType": "uint256",
          "name": "tokenId",
          "type": "uint256"
        }
      ],
      "name": "safeTransferFrom",
      "outputs": [],
      "stateMutability": "nonpayable",
      "type": "function"
    },
    {
      "inputs": [
        {
          "internalType": "address",
          "name": "from",
          "type": "address"
        },
        {
          "internalType": "address",
          "name": "to",
          "type": "address"
        },
        {
          "internalType": "uint256",
          "name": "tokenId",
          "type": "uint256"
        },
        {
          "internalType": "bytes",
          "name": "_data",
          "type": "bytes"
        }
      ],
      "name": "safeTransferFrom",
      "outputs": [],
      "stateMutability": "nonpayable",
      "type": "function"
    },
    {
      "inputs": [
        {
          "internalType": "address",
          "name": "operator",
          "type": "address"
        },
        {
          "internalType": "bool",
          "name": "approved",
          "type": "bool"
        }
      ],
      "name": "setApprovalForAll",
      "outputs": [],
      "stateMutability": "nonpayable",
      "type": "function"
    },
    {
      "inputs": [],
      "name": "symbol",
      "outputs": [
        {
          "internalType": "string",
          "name": "",
          "type": "string"
        }
      ],
      "stateMutability": "view",
      "type": "function"
    },
    {
      "inputs": [
        {
          "internalType": "uint256",
          "name": "index",
          "type": "uint256"
        }
      ],
      "name": "tokenByIndex",
      "outputs": [
        {
          "internalType": "uint256",
          "name": "",
          "type": "uint256"
        }
      ],
      "stateMutability": "view",
      "type": "function"
    },
    {
      "inputs": [
        {
          "internalType": "address",
          "name": "owner",
          "type": "address"
        },
        {
          "internalType": "uint256",
          "name": "index",
          "type": "uint256"
        }
      ],
      "name": "tokenOfOwnerByIndex",
      "outputs": [
        {
          "internalType": "uint256",
          "name": "",
          "type": "uint256"
        }
      ],
      "stateMutability": "view",
      "type": "function"
    },
    {
      "inputs": [
        {
          "internalType": "uint256",
          "name": "tokenId",
          "type": "uint256"
        }
      ],
      "name": "tokenURI",
      "outputs": [
        {
          "internalType": "string",
          "name": "",
          "type": "string"
        }
      ],
      "stateMutability": "view",
      "type": "function"
    },
    {
      "inputs": [],
      "name": "totalSupply",
      "outputs": [
        {
          "internalType": "uint256",
          "name": "",
          "type": "uint256"
        }
      ],
      "stateMutability": "view",
      "type": "function"
    },
    {
      "inputs": [
        {
          "internalType": "address",
          "name": "from",
          "type": "address"
        },
        {
          "internalType": "address",
          "name": "to",
          "type": "address"
        },
        {
          "internalType": "uint256",
          "name": "tokenId",
          "type": "uint256"
        }
      ],
      "name": "transferFrom",
      "outputs": [],
      "stateMutability": "nonpayable",
      "type": "function"
    },
    {
      "inputs": [
        {
          "internalType": "address",
          "name": "newOwner",
          "type": "address"
        }
      ],
      "name": "transferOwnership",
      "outputs": [],
      "stateMutability": "nonpayable",
      "type": "function"
    },
    {
      "inputs": [
        {
          "internalType": "address",
          "name": "to",
          "type": "address"
        }
      ],
      "name": "safeMint",
      "outputs": [],
      "stateMutability": "payable",
      "type": "function"
    },
    {
      "inputs": [
        {
          "internalType": "bytes4",
          "name": "interfaceId",
          "type": "bytes4"
        }
      ],
      "name": "supportsInterface",
      "outputs": [
        {
          "internalType": "bool",
          "name": "",
          "type": "bool"
        }
      ],
      "stateMutability": "view",
      "type": "function"
    },
    {
      "inputs": [],
      "name": "withdraw",
      "outputs": [],
      "stateMutability": "nonpayable",
      "type": "function"
    }
  ],
  "bytecode": "0x6080604052662386f26fc10000600b556001600c553480156200002157600080fd5b506040518060400160405280600781526020017f4d79546f6b656e000000000000000000000000000000000000000000000000008152506040518060400160405280600381526020017f4d544b00000000000000000000000000000000000000000000000000000000008152508160009080519060200190620000a6929190620001b6565b508060019080519060200190620000bf929190620001b6565b505050620000e2620000d6620000e860201b60201c565b620000f060201b60201c565b620002cb565b600033905090565b6000600a60009054906101000a900473ffffffffffffffffffffffffffffffffffffffff16905081600a60006101000a81548173ffffffffffffffffffffffffffffffffffffffff021916908373ffffffffffffffffffffffffffffffffffffffff1602179055508173ffffffffffffffffffffffffffffffffffffffff168173ffffffffffffffffffffffffffffffffffffffff167f8be0079c531659141344cd1fd0a4f28419497f9722a3daafe3b4186f6b6457e060405160405180910390a35050565b828054620001c49062000295565b90600052602060002090601f016020900481019282620001e8576000855562000234565b82601f106200020357805160ff191683800117855562000234565b8280016001018555821562000234579182015b828111156200023357825182559160200191906001019062000216565b5b50905062000243919062000247565b5090565b5b808211156200026257600081600090555060010162000248565b5090565b7f4e487b7100000000000000000000000000000000000000000000000000000000600052602260045260246000fd5b60006002820490506001821680620002ae57607f821691505b60208210811415620002c557620002c462000266565b5b50919050565b6137dc80620002db6000396000f3fe6080604052600436106101405760003560e01c80636352211e116100b6578063b88d4fde1161006f578063b88d4fde1461044d578063c87b56dd14610476578063ca0dcf16146104b3578063d5abeb01146104de578063e985e9c514610509578063f2fde38b1461054657610140565b80636352211e1461033d57806370a082311461037a578063715018a6146103b75780638da5cb5b146103ce57806395d89b41146103f9578063a22cb4651461042457610140565b806323b872dd1161010857806323b872dd1461023e5780632f745c59146102675780633ccfd60b146102a457806340d097c3146102bb57806342842e0e146102d75780634f6ccce71461030057610140565b806301ffc9a71461014557806306fdde0314610182578063081812fc146101ad578063095ea7b3146101ea57806318160ddd14610213575b600080fd5b34801561015157600080fd5b5061016c600480360381019061016791906123a4565b61056f565b60405161017991906123ec565b60405180910390f35b34801561018e57600080fd5b50610197610581565b6040516101a491906124a0565b60405180910390f35b3480156101b957600080fd5b506101d460048036038101906101cf91906124f8565b610613565b6040516101e19190612566565b60405180910390f35b3480156101f657600080fd5b50610211600480360381019061020c91906125ad565b610698565b005b34801561021f57600080fd5b506102286107b0565b60405161023591906125fc565b60405180910390f35b34801561024a57600080fd5b5061026560048036038101906102609190612617565b6107bd565b005b34801561027357600080fd5b5061028e600480360381019061028991906125ad565b61081d565b60405161029b91906125fc565b60405180910390f35b3480156102b057600080fd5b506102b96108c2565b005b6102d560048036038101906102d0919061266a565b6109d1565b005b3480156102e357600080fd5b506102fe60048036038101906102f99190612617565b610a87565b005b34801561030c57600080fd5b50610327600480360381019061032291906124f8565b610aa7565b60405161033491906125fc565b60405180910390f35b34801561034957600080fd5b50610364600480360381019061035f91906124f8565b610b18565b6040516103719190612566565b60405180910390f35b34801561038657600080fd5b506103a1600480360381019061039c919061266a565b610bca565b6040516103ae91906125fc565b60405180910390f35b3480156103c357600080fd5b506103cc610c82565b005b3480156103da57600080fd5b506103e3610d0a565b6040516103f09190612566565b60405180910390f35b34801561040557600080fd5b5061040e610d34565b60405161041b91906124a0565b60405180910390f35b34801561043057600080fd5b5061044b600480360381019061044691906126c3565b610dc6565b005b34801561045957600080fd5b50610474600480360381019061046f9190612838565b610ddc565b005b34801561048257600080fd5b5061049d600480360381019061049891906124f8565b610e3e565b6040516104aa91906124a0565b60405180910390f35b3480156104bf57600080fd5b506104c8610ee5565b6040516104d591906125fc565b60405180910390f35b3480156104ea57600080fd5b506104f3610eeb565b60405161050091906125fc565b60405180910390f35b34801561051557600080fd5b50610530600480360381019061052b91906128bb565b610ef1565b60405161053d91906123ec565b60405180910390f35b34801561055257600080fd5b5061056d6004803603810190610568919061266a565b610f85565b005b600061057a8261107d565b9050919050565b6060600080546105909061292a565b80601f01602080910402602001604051908101604052809291908181526020018280546105bc9061292a565b80156106095780601f106105de57610100808354040283529160200191610609565b820191906000526020600020905b8154815290600101906020018083116105ec57829003601f168201915b5050505050905090565b600061061e826110f7565b61065d576040517f08c379a0000000000000000000000000000000000000000000000000000000008152600401610654906129ce565b60405180910390fd5b6004600083815260200190815260200160002060009054906101000a900473ffffffffffffffffffffffffffffffffffffffff169050919050565b60006106a382610b18565b90508073ffffffffffffffffffffffffffffffffffffffff168373ffffffffffffffffffffffffffffffffffffffff161415610714576040517f08c379a000000000000000000000000000000000000000000000000000000000815260040161070b90612a60565b60405180910390fd5b8073ffffffffffffffffffffffffffffffffffffffff16610733611163565b73ffffffffffffffffffffffffffffffffffffffff16148061076257506107618161075c611163565b610ef1565b5b6107a1576040517f08c379a000000000000000000000000000000000000000000000000000000000815260040161079890612af2565b60405180910390fd5b6107ab838361116b565b505050565b6000600880549050905090565b6107ce6107c8611163565b82611224565b61080d576040517f08c379a000000000000000000000000000000000000000000000000000000000815260040161080490612b84565b60405180910390fd5b610818838383611302565b505050565b600061082883610bca565b8210610869576040517f08c379a000000000000000000000000000000000000000000000000000000000815260040161086090612c16565b60405180910390fd5b600660008473ffffffffffffffffffffffffffffffffffffffff1673ffffffffffffffffffffffffffffffffffffffff168152602001908152602001600020600083815260200190815260200160002054905092915050565b6108ca611163565b73ffffffffffffffffffffffffffffffffffffffff166108e8610d0a565b73ffffffffffffffffffffffffffffffffffffffff161461093e576040517f08c379a000000000000000000000000000000000000000000000000000000000815260040161093590612c82565b60405180910390fd5b60004711610981576040517f08c379a000000000000000000000000000000000000000000000000000000000815260040161097890612cee565b60405180910390fd5b610989610d0a565b73ffffffffffffffffffffffffffffffffffffffff166108fc479081150290604051600060405180830381858888f193505050501580156109ce573d6000803e3d6000fd5b50565b600c546109dc6107b0565b10610a1c576040517f08c379a0000000000000000000000000000000000000000000000000000000008152600401610a1390612d80565b60405180910390fd5b600b54341015610a61576040517f08c379a0000000000000000000000000000000000000000000000000000000008152600401610a5890612dec565b60405180910390fd5b610a6b600d611569565b6000610a77600d61157f565b9050610a83828261158d565b5050565b610aa283838360405180602001604052806000815250610ddc565b505050565b6000610ab16107b0565b8210610af2576040517f08c379a0000000000000000000000000000000000000000000000000000000008152600401610ae990612e7e565b60405180910390fd5b60088281548110610b0657610b05612e9e565b5b90600052602060002001549050919050565b6000806002600084815260200190815260200160002060009054906101000a900473ffffffffffffffffffffffffffffffffffffffff169050600073ffffffffffffffffffffffffffffffffffffffff168173ffffffffffffffffffffffffffffffffffffffff161415610bc1576040517f08c379a0000000000000000000000000000000000000000000000000000000008152600401610bb890612f3f565b60405180910390fd5b80915050919050565b60008073ffffffffffffffffffffffffffffffffffffffff168273ffffffffffffffffffffffffffffffffffffffff161415610c3b576040517f08c379a0000000000000000000000000000000000000000000000000000000008152600401610c3290612fd1565b60405180910390fd5b600360008373ffffffffffffffffffffffffffffffffffffffff1673ffffffffffffffffffffffffffffffffffffffff168152602001908152602001600020549050919050565b610c8a611163565b73ffffffffffffffffffffffffffffffffffffffff16610ca8610d0a565b73ffffffffffffffffffffffffffffffffffffffff1614610cfe576040517f08c379a0000000000000000000000000000000000000000000000000000000008152600401610cf590612c82565b60405180910390fd5b610d0860006115ab565b565b6000600a60009054906101000a900473ffffffffffffffffffffffffffffffffffffffff16905090565b606060018054610d439061292a565b80601f0160208091040260200160405190810160405280929190818152602001828054610d6f9061292a565b8015610dbc5780601f10610d9157610100808354040283529160200191610dbc565b820191906000526020600020905b815481529060010190602001808311610d9f57829003601f168201915b5050505050905090565b610dd8610dd1611163565b8383611671565b5050565b610ded610de7611163565b83611224565b610e2c576040517f08c379a0000000000000000000000000000000000000000000000000000000008152600401610e2390612b84565b60405180910390fd5b610e38848484846117de565b50505050565b6060610e49826110f7565b610e88576040517f08c379a0000000000000000000000000000000000000000000000000000000008152600401610e7f90613063565b60405180910390fd5b6000610e9261183a565b90506000815111610eb25760405180602001604052806000815250610edd565b80610ebc84611877565b604051602001610ecd9291906130bf565b6040516020818303038152906040525b915050919050565b600b5481565b600c5481565b6000600560008473ffffffffffffffffffffffffffffffffffffffff1673ffffffffffffffffffffffffffffffffffffffff16815260200190815260200160002060008373ffffffffffffffffffffffffffffffffffffffff1673ffffffffffffffffffffffffffffffffffffffff16815260200190815260200160002060009054906101000a900460ff16905092915050565b610f8d611163565b73ffffffffffffffffffffffffffffffffffffffff16610fab610d0a565b73ffffffffffffffffffffffffffffffffffffffff1614611001576040517f08c379a0000000000000000000000000000000000000000000000000000000008152600401610ff890612c82565b60405180910390fd5b600073ffffffffffffffffffffffffffffffffffffffff168173ffffffffffffffffffffffffffffffffffffffff161415611071576040517f08c379a000000000000000000000000000000000000000000000000000000000815260040161106890613155565b60405180910390fd5b61107a816115ab565b50565b60007f780e9d63000000000000000000000000000000000000000000000000000000007bffffffffffffffffffffffffffffffffffffffffffffffffffffffff1916827bffffffffffffffffffffffffffffffffffffffffffffffffffffffff191614806110f057506110ef826119d8565b5b9050919050565b60008073ffffffffffffffffffffffffffffffffffffffff166002600084815260200190815260200160002060009054906101000a900473ffffffffffffffffffffffffffffffffffffffff1673ffffffffffffffffffffffffffffffffffffffff1614159050919050565b600033905090565b816004600083815260200190815260200160002060006101000a81548173ffffffffffffffffffffffffffffffffffffffff021916908373ffffffffffffffffffffffffffffffffffffffff160217905550808273ffffffffffffffffffffffffffffffffffffffff166111de83610b18565b73ffffffffffffffffffffffffffffffffffffffff167f8c5be1e5ebec7d5bd14f71427d1e84f3dd0314c0f7b2291e5b200ac8c7c3b92560405160405180910390a45050565b600061122f826110f7565b61126e576040517f08c379a0000000000000000000000000000000000000000000000000000000008152600401611265906131e7565b60405180910390fd5b600061127983610b18565b90508073ffffffffffffffffffffffffffffffffffffffff168473ffffffffffffffffffffffffffffffffffffffff1614806112e857508373ffffffffffffffffffffffffffffffffffffffff166112d084610613565b73ffffffffffffffffffffffffffffffffffffffff16145b806112f957506112f88185610ef1565b5b91505092915050565b8273ffffffffffffffffffffffffffffffffffffffff1661132282610b18565b73ffffffffffffffffffffffffffffffffffffffff1614611378576040517f08c379a000000000000000000000000000000000000000000000000000000000815260040161136f90613279565b60405180910390fd5b600073ffffffffffffffffffffffffffffffffffffffff168273ffffffffffffffffffffffffffffffffffffffff1614156113e8576040517f08c379a00000000000000000000000000000000000000000000000000000000081526004016113df9061330b565b60405180910390fd5b6113f3838383611aba565b6113fe60008261116b565b6001600360008573ffffffffffffffffffffffffffffffffffffffff1673ffffffffffffffffffffffffffffffffffffffff168152602001908152602001600020600082825461144e919061335a565b925050819055506001600360008473ffffffffffffffffffffffffffffffffffffffff1673ffffffffffffffffffffffffffffffffffffffff16815260200190815260200160002060008282546114a5919061338e565b92505081905550816002600083815260200190815260200160002060006101000a81548173ffffffffffffffffffffffffffffffffffffffff021916908373ffffffffffffffffffffffffffffffffffffffff160217905550808273ffffffffffffffffffffffffffffffffffffffff168473ffffffffffffffffffffffffffffffffffffffff167fddf252ad1be2c89b69c2b068fc378daa952ba7f163c4a11628f55a4df523b3ef60405160405180910390a4611564838383611aca565b505050565b6001816000016000828254019250508190555050565b600081600001549050919050565b6115a7828260405180602001604052806000815250611acf565b5050565b6000600a60009054906101000a900473ffffffffffffffffffffffffffffffffffffffff16905081600a60006101000a81548173ffffffffffffffffffffffffffffffffffffffff021916908373ffffffffffffffffffffffffffffffffffffffff1602179055508173ffffffffffffffffffffffffffffffffffffffff168173ffffffffffffffffffffffffffffffffffffffff167f8be0079c531659141344cd1fd0a4f28419497f9722a3daafe3b4186f6b6457e060405160405180910390a35050565b8173ffffffffffffffffffffffffffffffffffffffff168373ffffffffffffffffffffffffffffffffffffffff1614156116e0576040517f08c379a00000000000000000000000000000000000000000000000000000000081526004016116d790613430565b60405180910390fd5b80600560008573ffffffffffffffffffffffffffffffffffffffff1673ffffffffffffffffffffffffffffffffffffffff16815260200190815260200160002060008473ffffffffffffffffffffffffffffffffffffffff1673ffffffffffffffffffffffffffffffffffffffff16815260200190815260200160002060006101000a81548160ff0219169083151502179055508173ffffffffffffffffffffffffffffffffffffffff168373ffffffffffffffffffffffffffffffffffffffff167f17307eab39ab6107e8899845ad3d59bd9653f200f220920489ca2b5937696c31836040516117d191906123ec565b60405180910390a3505050565b6117e9848484611302565b6117f584848484611b2a565b611834576040517f08c379a000000000000000000000000000000000000000000000000000000000815260040161182b906134c2565b60405180910390fd5b50505050565b60606040518060400160405280601c81526020017f68747470733a2f2f6170692e6d796e66742e636f6d2f746f6b656e7300000000815250905090565b606060008214156118bf576040518060400160405280600181526020017f300000000000000000000000000000000000000000000000000000000000000081525090506119d3565b600082905060005b600082146118f15780806118da906134e2565b915050600a826118ea919061355a565b91506118c7565b60008167ffffffffffffffff81111561190d5761190c61270d565b5b6040519080825280601f01601f19166020018201604052801561193f5781602001600182028036833780820191505090505b5090505b600085146119cc57600182611958919061335a565b9150600a85611967919061358b565b6030611973919061338e565b60f81b81838151811061198957611988612e9e565b5b60200101907effffffffffffffffffffffffffffffffffffffffffffffffffffffffffffff1916908160001a905350600a856119c5919061355a565b9450611943565b8093505050505b919050565b60007f80ac58cd000000000000000000000000000000000000000000000000000000007bffffffffffffffffffffffffffffffffffffffffffffffffffffffff1916827bffffffffffffffffffffffffffffffffffffffffffffffffffffffff19161480611aa357507f5b5e139f000000000000000000000000000000000000000000000000000000007bffffffffffffffffffffffffffffffffffffffffffffffffffffffff1916827bffffffffffffffffffffffffffffffffffffffffffffffffffffffff1916145b80611ab35750611ab282611cb2565b5b9050919050565b611ac5838383611d1c565b505050565b505050565b611ad98383611e30565b611ae66000848484611b2a565b611b25576040517f08c379a0000000000000000000000000000000000000000000000000000000008152600401611b1c906134c2565b60405180910390fd5b505050565b6000611b4b8473ffffffffffffffffffffffffffffffffffffffff1661200a565b15611ca5578373ffffffffffffffffffffffffffffffffffffffff1663150b7a02611b74611163565b8786866040518563ffffffff1660e01b8152600401611b969493929190613611565b6020604051808303816000875af1925050508015611bd257506040513d601f19601f82011682018060405250810190611bcf9190613672565b60015b611c55573d8060008114611c02576040519150601f19603f3d011682016040523d82523d6000602084013e611c07565b606091505b50600081511415611c4d576040517f08c379a0000000000000000000000000000000000000000000000000000000008152600401611c44906134c2565b60405180910390fd5b805181602001fd5b63150b7a0260e01b7bffffffffffffffffffffffffffffffffffffffffffffffffffffffff1916817bffffffffffffffffffffffffffffffffffffffffffffffffffffffff191614915050611caa565b600190505b949350505050565b60007f01ffc9a7000000000000000000000000000000000000000000000000000000007bffffffffffffffffffffffffffffffffffffffffffffffffffffffff1916827bffffffffffffffffffffffffffffffffffffffffffffffffffffffff1916149050919050565b611d2783838361202d565b600073ffffffffffffffffffffffffffffffffffffffff168373ffffffffffffffffffffffffffffffffffffffff161415611d6a57611d6581612032565b611da9565b8173ffffffffffffffffffffffffffffffffffffffff168373ffffffffffffffffffffffffffffffffffffffff1614611da857611da7838261207b565b5b5b600073ffffffffffffffffffffffffffffffffffffffff168273ffffffffffffffffffffffffffffffffffffffff161415611dec57611de7816121e8565b611e2b565b8273ffffffffffffffffffffffffffffffffffffffff168273ffffffffffffffffffffffffffffffffffffffff1614611e2a57611e2982826122b9565b5b5b505050565b600073ffffffffffffffffffffffffffffffffffffffff168273ffffffffffffffffffffffffffffffffffffffff161415611ea0576040517f08c379a0000000000000000000000000000000000000000000000000000000008152600401611e97906136eb565b60405180910390fd5b611ea9816110f7565b15611ee9576040517f08c379a0000000000000000000000000000000000000000000000000000000008152600401611ee090613757565b60405180910390fd5b611ef560008383611aba565b6001600360008473ffffffffffffffffffffffffffffffffffffffff1673ffffffffffffffffffffffffffffffffffffffff1681526020019081526020016000206000828254611f45919061338e565b92505081905550816002600083815260200190815260200160002060006101000a81548173ffffffffffffffffffffffffffffffffffffffff021916908373ffffffffffffffffffffffffffffffffffffffff160217905550808273ffffffffffffffffffffffffffffffffffffffff16600073ffffffffffffffffffffffffffffffffffffffff167fddf252ad1be2c89b69c2b068fc378daa952ba7f163c4a11628f55a4df523b3ef60405160405180910390a461200660008383611aca565b5050565b6000808273ffffffffffffffffffffffffffffffffffffffff163b119050919050565b505050565b6008805490506009600083815260200190815260200160002081905550600881908060018154018082558091505060019003906000526020600020016000909190919091505550565b6000600161208884610bca565b612092919061335a565b9050600060076000848152602001908152602001600020549050818114612177576000600660008673ffffffffffffffffffffffffffffffffffffffff1673ffffffffffffffffffffffffffffffffffffffff168152602001908152602001600020600084815260200190815260200160002054905080600660008773ffffffffffffffffffffffffffffffffffffffff1673ffffffffffffffffffffffffffffffffffffffff168152602001908152602001600020600084815260200190815260200160002081905550816007600083815260200190815260200160002081905550505b6007600084815260200190815260200160002060009055600660008573ffffffffffffffffffffffffffffffffffffffff1673ffffffffffffffffffffffffffffffffffffffff16815260200190815260200160002060008381526020019081526020016000206000905550505050565b600060016008805490506121fc919061335a565b905060006009600084815260200190815260200160002054905060006008838154811061222c5761222b612e9e565b5b90600052602060002001549050806008838154811061224e5761224d612e9e565b5b90600052602060002001819055508160096000838152602001908152602001600020819055506009600085815260200190815260200160002060009055600880548061229d5761229c613777565b5b6001900381819060005260206000200160009055905550505050565b60006122c483610bca565b905081600660008573ffffffffffffffffffffffffffffffffffffffff1673ffffffffffffffffffffffffffffffffffffffff168152602001908152602001600020600083815260200190815260200160002081905550806007600084815260200190815260200160002081905550505050565b6000604051905090565b600080fd5b600080fd5b60007fffffffff0000000000000000000000000000000000000000000000000000000082169050919050565b6123818161234c565b811461238c57600080fd5b50565b60008135905061239e81612378565b92915050565b6000602082840312156123ba576123b9612342565b5b60006123c88482850161238f565b91505092915050565b60008115159050919050565b6123e6816123d1565b82525050565b600060208201905061240160008301846123dd565b92915050565b600081519050919050565b600082825260208201905092915050565b60005b83811015612441578082015181840152602081019050612426565b83811115612450576000848401525b50505050565b6000601f19601f8301169050919050565b600061247282612407565b61247c8185612412565b935061248c818560208601612423565b61249581612456565b840191505092915050565b600060208201905081810360008301526124ba8184612467565b905092915050565b6000819050919050565b6124d5816124c2565b81146124e057600080fd5b50565b6000813590506124f2816124cc565b92915050565b60006020828403121561250e5761250d612342565b5b600061251c848285016124e3565b91505092915050565b600073ffffffffffffffffffffffffffffffffffffffff82169050919050565b600061255082612525565b9050919050565b61256081612545565b82525050565b600060208201905061257b6000830184612557565b92915050565b61258a81612545565b811461259557600080fd5b50565b6000813590506125a781612581565b92915050565b600080604083850312156125c4576125c3612342565b5b60006125d285828601612598565b92505060206125e3858286016124e3565b9150509250929050565b6125f6816124c2565b82525050565b600060208201905061261160008301846125ed565b92915050565b6000806000606084860312156126305761262f612342565b5b600061263e86828701612598565b935050602061264f86828701612598565b9250506040612660868287016124e3565b9150509250925092565b6000602082840312156126805761267f612342565b5b600061268e84828501612598565b91505092915050565b6126a0816123d1565b81146126ab57600080fd5b50565b6000813590506126bd81612697565b92915050565b600080604083850312156126da576126d9612342565b5b60006126e885828601612598565b92505060206126f9858286016126ae565b9150509250929050565b600080fd5b600080fd5b7f4e487b7100000000000000000000000000000000000000000000000000000000600052604160045260246000fd5b61274582612456565b810181811067ffffffffffffffff821117156127645761276361270d565b5b80604052505050565b6000612777612338565b9050612783828261273c565b919050565b600067ffffffffffffffff8211156127a3576127a261270d565b5b6127ac82612456565b9050602081019050919050565b82818337600083830152505050565b60006127db6127d684612788565b61276d565b9050828152602081018484840111156127f7576127f6612708565b5b6128028482856127b9565b509392505050565b600082601f83011261281f5761281e612703565b5b813561282f8482602086016127c8565b91505092915050565b6000806000806080858703121561285257612851612342565b5b600061286087828801612598565b945050602061287187828801612598565b9350506040612882878288016124e3565b925050606085013567ffffffffffffffff8111156128a3576128a2612347565b5b6128af8782880161280a565b91505092959194509250565b600080604083850312156128d2576128d1612342565b5b60006128e085828601612598565b92505060206128f185828601612598565b9150509250929050565b7f4e487b7100000000000000000000000000000000000000000000000000000000600052602260045260246000fd5b6000600282049050600182168061294257607f821691505b60208210811415612956576129556128fb565b5b50919050565b7f4552433732313a20617070726f76656420717565727920666f72206e6f6e657860008201527f697374656e7420746f6b656e0000000000000000000000000000000000000000602082015250565b60006129b8602c83612412565b91506129c38261295c565b604082019050919050565b600060208201905081810360008301526129e7816129ab565b9050919050565b7f4552433732313a20617070726f76616c20746f2063757272656e74206f776e6560008201527f7200000000000000000000000000000000000000000000000000000000000000602082015250565b6000612a4a602183612412565b9150612a55826129ee565b604082019050919050565b60006020820190508181036000830152612a7981612a3d565b9050919050565b7f4552433732313a20617070726f76652063616c6c6572206973206e6f74206f7760008201527f6e6572206e6f7220617070726f76656420666f7220616c6c0000000000000000602082015250565b6000612adc603883612412565b9150612ae782612a80565b604082019050919050565b60006020820190508181036000830152612b0b81612acf565b9050919050565b7f4552433732313a207472616e736665722063616c6c6572206973206e6f74206f60008201527f776e6572206e6f7220617070726f766564000000000000000000000000000000602082015250565b6000612b6e603183612412565b9150612b7982612b12565b604082019050919050565b60006020820190508181036000830152612b9d81612b61565b9050919050565b7f455243373231456e756d657261626c653a206f776e657220696e646578206f7560008201527f74206f6620626f756e6473000000000000000000000000000000000000000000602082015250565b6000612c00602b83612412565b9150612c0b82612ba4565b604082019050919050565b60006020820190508181036000830152612c2f81612bf3565b9050919050565b7f4f776e61626c653a2063616c6c6572206973206e6f7420746865206f776e6572600082015250565b6000612c6c602083612412565b9150612c7782612c36565b602082019050919050565b60006020820190508181036000830152612c9b81612c5f565b9050919050565b7f5468657265206973206e6f206d6f6e657920666f7220796f7520686572650000600082015250565b6000612cd8601e83612412565b9150612ce382612ca2565b602082019050919050565b60006020820190508181036000830152612d0781612ccb565b9050919050565b7f546865726520617265206e6f206d6f7265204e46547320746f206d696e74203a60008201527f2800000000000000000000000000000000000000000000000000000000000000602082015250565b6000612d6a602183612412565b9150612d7582612d0e565b604082019050919050565b60006020820190508181036000830152612d9981612d5d565b9050919050565b7f4552524f523a20596f75204e65656420546f2050617920557021212100000000600082015250565b6000612dd6601c83612412565b9150612de182612da0565b602082019050919050565b60006020820190508181036000830152612e0581612dc9565b9050919050565b7f455243373231456e756d657261626c653a20676c6f62616c20696e646578206f60008201527f7574206f6620626f756e64730000000000000000000000000000000000000000602082015250565b6000612e68602c83612412565b9150612e7382612e0c565b604082019050919050565b60006020820190508181036000830152612e9781612e5b565b9050919050565b7f4e487b7100000000000000000000000000000000000000000000000000000000600052603260045260246000fd5b7f4552433732313a206f776e657220717565727920666f72206e6f6e657869737460008201527f656e7420746f6b656e0000000000000000000000000000000000000000000000602082015250565b6000612f29602983612412565b9150612f3482612ecd565b604082019050919050565b60006020820190508181036000830152612f5881612f1c565b9050919050565b7f4552433732313a2062616c616e636520717565727920666f7220746865207a6560008201527f726f206164647265737300000000000000000000000000000000000000000000602082015250565b6000612fbb602a83612412565b9150612fc682612f5f565b604082019050919050565b60006020820190508181036000830152612fea81612fae565b9050919050565b7f4552433732314d657461646174613a2055524920717565727920666f72206e6f60008201527f6e6578697374656e7420746f6b656e0000000000000000000000000000000000602082015250565b600061304d602f83612412565b915061305882612ff1565b604082019050919050565b6000602082019050818103600083015261307c81613040565b9050919050565b600081905092915050565b600061309982612407565b6130a38185613083565b93506130b3818560208601612423565b80840191505092915050565b60006130cb828561308e565b91506130d7828461308e565b91508190509392505050565b7f4f776e61626c653a206e6577206f776e657220697320746865207a65726f206160008201527f6464726573730000000000000000000000000000000000000000000000000000602082015250565b600061313f602683612412565b915061314a826130e3565b604082019050919050565b6000602082019050818103600083015261316e81613132565b9050919050565b7f4552433732313a206f70657261746f7220717565727920666f72206e6f6e657860008201527f697374656e7420746f6b656e0000000000000000000000000000000000000000602082015250565b60006131d1602c83612412565b91506131dc82613175565b604082019050919050565b60006020820190508181036000830152613200816131c4565b9050919050565b7f4552433732313a207472616e736665722066726f6d20696e636f72726563742060008201527f6f776e6572000000000000000000000000000000000000000000000000000000602082015250565b6000613263602583612412565b915061326e82613207565b604082019050919050565b6000602082019050818103600083015261329281613256565b9050919050565b7f4552433732313a207472616e7366657220746f20746865207a65726f2061646460008201527f7265737300000000000000000000000000000000000000000000000000000000602082015250565b60006132f5602483612412565b915061330082613299565b604082019050919050565b60006020820190508181036000830152613324816132e8565b9050919050565b7f4e487b7100000000000000000000000000000000000000000000000000000000600052601160045260246000fd5b6000613365826124c2565b9150613370836124c2565b9250828210156133835761338261332b565b5b828203905092915050565b6000613399826124c2565b91506133a4836124c2565b9250827fffffffffffffffffffffffffffffffffffffffffffffffffffffffffffffffff038211156133d9576133d861332b565b5b828201905092915050565b7f4552433732313a20617070726f766520746f2063616c6c657200000000000000600082015250565b600061341a601983612412565b9150613425826133e4565b602082019050919050565b600060208201905081810360008301526134498161340d565b9050919050565b7f4552433732313a207472616e7366657220746f206e6f6e20455243373231526560008201527f63656976657220696d706c656d656e7465720000000000000000000000000000602082015250565b60006134ac603283612412565b91506134b782613450565b604082019050919050565b600060208201905081810360008301526134db8161349f565b9050919050565b60006134ed826124c2565b91507fffffffffffffffffffffffffffffffffffffffffffffffffffffffffffffffff8214156135205761351f61332b565b5b600182019050919050565b7f4e487b7100000000000000000000000000000000000000000000000000000000600052601260045260246000fd5b6000613565826124c2565b9150613570836124c2565b9250826135805761357f61352b565b5b828204905092915050565b6000613596826124c2565b91506135a1836124c2565b9250826135b1576135b061352b565b5b828206905092915050565b600081519050919050565b600082825260208201905092915050565b60006135e3826135bc565b6135ed81856135c7565b93506135fd818560208601612423565b61360681612456565b840191505092915050565b60006080820190506136266000830187612557565b6136336020830186612557565b61364060408301856125ed565b818103606083015261365281846135d8565b905095945050505050565b60008151905061366c81612378565b92915050565b60006020828403121561368857613687612342565b5b60006136968482850161365d565b91505092915050565b7f4552433732313a206d696e7420746f20746865207a65726f2061646472657373600082015250565b60006136d5602083612412565b91506136e08261369f565b602082019050919050565b60006020820190508181036000830152613704816136c8565b9050919050565b7f4552433732313a20746f6b656e20616c7265616479206d696e74656400000000600082015250565b6000613741601c83612412565b915061374c8261370b565b602082019050919050565b6000602082019050818103600083015261377081613734565b9050919050565b7f4e487b7100000000000000000000000000000000000000000000000000000000600052603160045260246000fdfea2646970667358221220c66cc7d9fa5a37bfeb3bdd0bd1efc3a1f5d8d90ea7ba4bce2a7954d265f719d364736f6c634300080b0033",
  "immutableReferences": {},
  "source": "//SPDX-License-Identifier: MIT\npragma solidity ^0.8.4;\n\nimport \"@openzeppelin/contracts/token/ERC721/ERC721.sol\";\nimport \"@openzeppelin/contracts/token/ERC721/extensions/ERC721Enumerable.sol\";\nimport \"@openzeppelin/contracts/access/Ownable.sol\";\nimport \"@openzeppelin/contracts/utils/Counters.sol\";\n\ncontract MyToken is ERC721, ERC721Enumerable, Ownable {\n\n    uint256 public mintRate = 0.01 ether;\n    uint public maxSupply = 1;\n\n    using Counters for Counters.Counter;\n\n    Counters.Counter private _tokenIdCounter;\n\n    constructor() ERC721(\"MyToken\", \"MTK\") {}\n\n    function _baseURI() internal pure override returns (string memory) {\n        return \"https://api.mynft.com/tokens\";\n    }\n\n    function safeMint(address to) public payable {\n        require(totalSupply() < maxSupply, \"There are no more NFTs to mint :(\");\n        require(msg.value >= mintRate, \"ERROR: You Need To Pay Up!!!\");\n        _tokenIdCounter.increment();\n        uint256 tokenId = _tokenIdCounter.current();\n        _safeMint(to, tokenId);\n    }\n\n    // The following functions are overrides required by Solidity.\n\n    function _beforeTokenTransfer(address from, address to, uint256 tokenId)\n        internal\n        override(ERC721, ERC721Enumerable)\n    {\n        super._beforeTokenTransfer(from, to, tokenId);\n    }\n\n    function supportsInterface(bytes4 interfaceId)\n        public\n        view\n        override(ERC721, ERC721Enumerable)\n        returns (bool)\n    {\n        return super.supportsInterface(interfaceId);\n    }\n\n    function withdraw() public onlyOwner {\n        require(address(this).balance > 0, \"There is no money for you here\");\n        payable(owner()).transfer(address(this).balance);\n    }\n}",
  "sourcePath": "/Users/joseph/blockchain/invite-only/contracts/MyToken.sol",
  "compiler": {
    "name": "solc",
    "version": "0.8.11+commit.d7f03943.Emscripten.clang"
  },
  "schemaVersion": "3.4.5",
  "updatedAt": "2022-03-06T07:19:17.575Z",
  "devdoc": {
    "kind": "dev",
    "methods": {
      "approve(address,uint256)": {
        "details": "See {IERC721-approve}."
      },
      "balanceOf(address)": {
        "details": "See {IERC721-balanceOf}."
      },
      "getApproved(uint256)": {
        "details": "See {IERC721-getApproved}."
      },
      "isApprovedForAll(address,address)": {
        "details": "See {IERC721-isApprovedForAll}."
      },
      "name()": {
        "details": "See {IERC721Metadata-name}."
      },
      "owner()": {
        "details": "Returns the address of the current owner."
      },
      "ownerOf(uint256)": {
        "details": "See {IERC721-ownerOf}."
      },
      "renounceOwnership()": {
        "details": "Leaves the contract without owner. It will not be possible to call `onlyOwner` functions anymore. Can only be called by the current owner. NOTE: Renouncing ownership will leave the contract without an owner, thereby removing any functionality that is only available to the owner."
      },
      "safeTransferFrom(address,address,uint256)": {
        "details": "See {IERC721-safeTransferFrom}."
      },
      "safeTransferFrom(address,address,uint256,bytes)": {
        "details": "See {IERC721-safeTransferFrom}."
      },
      "setApprovalForAll(address,bool)": {
        "details": "See {IERC721-setApprovalForAll}."
      },
      "symbol()": {
        "details": "See {IERC721Metadata-symbol}."
      },
      "tokenByIndex(uint256)": {
        "details": "See {IERC721Enumerable-tokenByIndex}."
      },
      "tokenOfOwnerByIndex(address,uint256)": {
        "details": "See {IERC721Enumerable-tokenOfOwnerByIndex}."
      },
      "tokenURI(uint256)": {
        "details": "See {IERC721Metadata-tokenURI}."
      },
      "totalSupply()": {
        "details": "See {IERC721Enumerable-totalSupply}."
      },
      "transferFrom(address,address,uint256)": {
        "details": "See {IERC721-transferFrom}."
      },
      "transferOwnership(address)": {
        "details": "Transfers ownership of the contract to a new account (`newOwner`). Can only be called by the current owner."
      }
    },
    "version": 1
  },
  "userdoc": {
    "kind": "user",
    "methods": {},
    "version": 1
  }
}